{
  "contractName": "Marketplace",
  "abi": [
    {
      "inputs": [],
      "stateMutability": "nonpayable",
      "type": "constructor"
    },
    {
      "anonymous": false,
      "inputs": [
        {
          "indexed": false,
          "internalType": "address",
          "name": "owner",
          "type": "address"
        },
        {
          "indexed": false,
          "internalType": "address",
          "name": "user",
          "type": "address"
        },
        {
          "indexed": false,
          "internalType": "address",
          "name": "nftContract",
          "type": "address"
        },
        {
          "indexed": false,
          "internalType": "uint256",
          "name": "tokenId",
          "type": "uint256"
        },
        {
          "indexed": false,
          "internalType": "uint256",
          "name": "pricePerDay",
          "type": "uint256"
        },
        {
          "indexed": false,
          "internalType": "uint256",
          "name": "startDateUNIX",
          "type": "uint256"
        },
        {
          "indexed": false,
          "internalType": "uint256",
          "name": "endDateUNIX",
          "type": "uint256"
        },
        {
          "indexed": false,
          "internalType": "uint256",
          "name": "expires",
          "type": "uint256"
        }
      ],
      "name": "NFTListed",
      "type": "event"
    },
    {
      "anonymous": false,
      "inputs": [
        {
          "indexed": false,
          "internalType": "address",
          "name": "owner",
          "type": "address"
        },
        {
          "indexed": false,
          "internalType": "address",
          "name": "user",
          "type": "address"
        },
        {
          "indexed": false,
          "internalType": "address",
          "name": "nftContract",
          "type": "address"
        },
        {
          "indexed": false,
          "internalType": "uint256",
          "name": "tokenId",
          "type": "uint256"
        },
        {
          "indexed": false,
          "internalType": "uint256",
          "name": "startDateUNIX",
          "type": "uint256"
        },
        {
          "indexed": false,
          "internalType": "uint256",
          "name": "endDateUNIX",
          "type": "uint256"
        },
        {
          "indexed": false,
          "internalType": "uint64",
          "name": "expires",
          "type": "uint64"
        },
        {
          "indexed": false,
          "internalType": "uint256",
          "name": "rentalFee",
          "type": "uint256"
        }
      ],
      "name": "NFTRented",
      "type": "event"
    },
    {
      "anonymous": false,
      "inputs": [
        {
          "indexed": false,
          "internalType": "address",
          "name": "unlistSender",
          "type": "address"
        },
        {
          "indexed": false,
          "internalType": "address",
          "name": "nftContract",
          "type": "address"
        },
        {
          "indexed": false,
          "internalType": "uint256",
          "name": "tokenId",
          "type": "uint256"
        },
        {
          "indexed": false,
          "internalType": "uint256",
          "name": "refund",
          "type": "uint256"
        }
      ],
      "name": "NFTUnlisted",
      "type": "event"
    },
    {
      "inputs": [
        {
          "internalType": "address",
          "name": "nftContract",
          "type": "address"
        },
        {
          "internalType": "uint256",
          "name": "tokenId",
          "type": "uint256"
        },
        {
          "internalType": "uint256",
          "name": "pricePerDay",
          "type": "uint256"
        },
        {
          "internalType": "uint256",
          "name": "startDateUNIX",
          "type": "uint256"
        },
        {
          "internalType": "uint256",
          "name": "endDateUNIX",
          "type": "uint256"
        }
      ],
      "name": "listNFT",
      "outputs": [],
      "stateMutability": "payable",
      "type": "function",
      "payable": true
    },
    {
      "inputs": [
        {
          "internalType": "address",
          "name": "nftContract",
          "type": "address"
        }
      ],
      "name": "isRentableNFT",
      "outputs": [
        {
          "internalType": "bool",
          "name": "",
          "type": "bool"
        }
      ],
      "stateMutability": "view",
      "type": "function",
      "constant": true
    },
    {
      "inputs": [
        {
          "internalType": "address",
          "name": "nftContract",
          "type": "address"
        },
        {
          "internalType": "uint256",
          "name": "tokenId",
          "type": "uint256"
        },
        {
          "internalType": "uint64",
          "name": "expires",
          "type": "uint64"
        }
      ],
      "name": "rentNFT",
      "outputs": [],
      "stateMutability": "payable",
      "type": "function",
      "payable": true
    },
    {
      "inputs": [
        {
          "internalType": "address",
          "name": "nftContract",
          "type": "address"
        },
        {
          "internalType": "uint256",
          "name": "tokenId",
          "type": "uint256"
        }
      ],
      "name": "unlistNFT",
      "outputs": [],
      "stateMutability": "payable",
      "type": "function",
      "payable": true
    },
    {
      "inputs": [],
      "name": "getAllListings",
      "outputs": [
        {
          "components": [
            {
              "internalType": "address",
              "name": "owner",
              "type": "address"
            },
            {
              "internalType": "address",
              "name": "user",
              "type": "address"
            },
            {
              "internalType": "address",
              "name": "nftContract",
              "type": "address"
            },
            {
              "internalType": "uint256",
              "name": "tokenId",
              "type": "uint256"
            },
            {
              "internalType": "uint256",
              "name": "pricePerDay",
              "type": "uint256"
            },
            {
              "internalType": "uint256",
              "name": "startDateUNIX",
              "type": "uint256"
            },
            {
              "internalType": "uint256",
              "name": "endDateUNIX",
              "type": "uint256"
            },
            {
              "internalType": "uint256",
              "name": "expires",
              "type": "uint256"
            }
          ],
          "internalType": "struct Marketplace.Listing[]",
          "name": "",
          "type": "tuple[]"
        }
      ],
      "stateMutability": "view",
      "type": "function",
      "constant": true
    },
    {
      "inputs": [],
      "name": "getListingFee",
      "outputs": [
        {
          "internalType": "uint256",
          "name": "",
          "type": "uint256"
        }
      ],
      "stateMutability": "view",
      "type": "function",
      "constant": true
    }
  ],
  "bytecode": "0x608060405266038d7ea4c6800060035534801561001b57600080fd5b50600160008190555033600260006101000a81548173ffffffffffffffffffffffffffffffffffffffff021916908373ffffffffffffffffffffffffffffffffffffffff160217905550612ada806100746000396000f3fe6080604052600436106100555760003560e01c80637e943afd1461005a5780637fc27efd146100765780639a34f00314610092578063ae73ccec146100ae578063b8fe6abe146100d9578063e9a6f4f614610104575b600080fd5b610074600480360381019061006f9190611abe565b610141565b005b610090600480360381019061008b9190611b39565b6107d8565b005b6100ac60048036038101906100a79190611bb9565b610d62565b005b3480156100ba57600080fd5b506100c3611156565b6040516100d09190611d7c565b60405180910390f35b3480156100e557600080fd5b506100ee611453565b6040516100fb9190611dad565b60405180910390f35b34801561011057600080fd5b5061012b60048036038101906101269190611dc8565b61145d565b6040516101389190611e10565b60405180910390f35b6101496115c6565b6101528561145d565b610191576040517f08c379a000000000000000000000000000000000000000000000000000000000815260040161018890611e88565b60405180910390fd5b3373ffffffffffffffffffffffffffffffffffffffff168573ffffffffffffffffffffffffffffffffffffffff16636352211e866040518263ffffffff1660e01b81526004016101e19190611dad565b602060405180830381865afa1580156101fe573d6000803e3d6000fd5b505050506040513d601f19601f820116820180604052508101906102229190611ebd565b73ffffffffffffffffffffffffffffffffffffffff1614610278576040517f08c379a000000000000000000000000000000000000000000000000000000000815260040161026f90611f36565b60405180910390fd5b60035434146102bc576040517f08c379a00000000000000000000000000000000000000000000000000000000081526004016102b390611fa2565b60405180910390fd5b600083116102ff576040517f08c379a00000000000000000000000000000000000000000000000000000000081526004016102f690612034565b60405180910390fd5b42821015610342576040517f08c379a0000000000000000000000000000000000000000000000000000000008152600401610339906120a0565b60405180910390fd5b81811015610385576040517f08c379a000000000000000000000000000000000000000000000000000000000815260040161037c90612132565b60405180910390fd5b600073ffffffffffffffffffffffffffffffffffffffff16600460008773ffffffffffffffffffffffffffffffffffffffff1673ffffffffffffffffffffffffffffffffffffffff168152602001908152602001600020600086815260200190815260200160002060020160009054906101000a900473ffffffffffffffffffffffffffffffffffffffff1673ffffffffffffffffffffffffffffffffffffffff1614610467576040517f08c379a000000000000000000000000000000000000000000000000000000000815260040161045e9061219e565b60405180910390fd5b600260009054906101000a900473ffffffffffffffffffffffffffffffffffffffff1673ffffffffffffffffffffffffffffffffffffffff166108fc6003549081150290604051600060405180830381858888f193505050501580156104d1573d6000803e3d6000fd5b506040518061010001604052803373ffffffffffffffffffffffffffffffffffffffff168152602001600073ffffffffffffffffffffffffffffffffffffffff1681526020018673ffffffffffffffffffffffffffffffffffffffff1681526020018581526020018481526020018381526020018281526020016000815250600460008773ffffffffffffffffffffffffffffffffffffffff1673ffffffffffffffffffffffffffffffffffffffff168152602001908152602001600020600086815260200190815260200160002060008201518160000160006101000a81548173ffffffffffffffffffffffffffffffffffffffff021916908373ffffffffffffffffffffffffffffffffffffffff16021790555060208201518160010160006101000a81548173ffffffffffffffffffffffffffffffffffffffff021916908373ffffffffffffffffffffffffffffffffffffffff16021790555060408201518160020160006101000a81548173ffffffffffffffffffffffffffffffffffffffff021916908373ffffffffffffffffffffffffffffffffffffffff160217905550606082015181600301556080820151816004015560a0820151816005015560c0820151816006015560e082015181600701559050506106b46001611615565b6106fc600560008773ffffffffffffffffffffffffffffffffffffffff1673ffffffffffffffffffffffffffffffffffffffff1681526020019081526020016000208561162b565b50610708600686611645565b507f51961ff716bd7d3e30c6869dae4d4c0f9e0c6abbae1aa5887f3f6fa8d68f34df8573ffffffffffffffffffffffffffffffffffffffff16636352211e866040518263ffffffff1660e01b81526004016107639190611dad565b602060405180830381865afa158015610780573d6000803e3d6000fd5b505050506040513d601f19601f820116820180604052508101906107a49190611ebd565b6000878787878760006040516107c1989796959493929190612212565b60405180910390a16107d1611675565b5050505050565b6107e06115c6565b6000600460008473ffffffffffffffffffffffffffffffffffffffff1673ffffffffffffffffffffffffffffffffffffffff16815260200190815260200160002060008381526020019081526020016000209050600073ffffffffffffffffffffffffffffffffffffffff168160000160009054906101000a900473ffffffffffffffffffffffffffffffffffffffff1673ffffffffffffffffffffffffffffffffffffffff16036108c7576040517f08c379a00000000000000000000000000000000000000000000000000000000081526004016108be906122dc565b60405180910390fd5b3373ffffffffffffffffffffffffffffffffffffffff168160000160009054906101000a900473ffffffffffffffffffffffffffffffffffffffff1673ffffffffffffffffffffffffffffffffffffffff16148061097257503373ffffffffffffffffffffffffffffffffffffffff16600260009054906101000a900473ffffffffffffffffffffffffffffffffffffffff1673ffffffffffffffffffffffffffffffffffffffff16145b6109b1576040517f08c379a00000000000000000000000000000000000000000000000000000000081526004016109a890612348565b60405180910390fd5b60008073ffffffffffffffffffffffffffffffffffffffff168260010160009054906101000a900473ffffffffffffffffffffffffffffffffffffffff1673ffffffffffffffffffffffffffffffffffffffff1614610b0957816004015460016018603c80428760070154610a269190612397565b610a3091906123fa565b610a3a91906123fa565b610a4491906123fa565b610a4e919061242b565b610a589190612481565b905080341015610a9d576040517f08c379a0000000000000000000000000000000000000000000000000000000008152600401610a9490612527565b60405180910390fd5b8160010160009054906101000a900473ffffffffffffffffffffffffffffffffffffffff1673ffffffffffffffffffffffffffffffffffffffff166108fc829081150290604051600060405180830381858888f19350505050158015610b07573d6000803e3d6000fd5b505b8373ffffffffffffffffffffffffffffffffffffffff1663e030565e846000806040518463ffffffff1660e01b8152600401610b4793929190612578565b600060405180830381600087803b158015610b6157600080fd5b505af1158015610b75573d6000803e3d6000fd5b50505050610bc1600560008673ffffffffffffffffffffffffffffffffffffffff1673ffffffffffffffffffffffffffffffffffffffff1681526020019081526020016000208461167f565b50600460008573ffffffffffffffffffffffffffffffffffffffff1673ffffffffffffffffffffffffffffffffffffffff1681526020019081526020016000206000848152602001908152602001600020600080820160006101000a81549073ffffffffffffffffffffffffffffffffffffffff02191690556001820160006101000a81549073ffffffffffffffffffffffffffffffffffffffff02191690556002820160006101000a81549073ffffffffffffffffffffffffffffffffffffffff02191690556003820160009055600482016000905560058201600090556006820160009055600782016000905550506000610cfb600560008773ffffffffffffffffffffffffffffffffffffffff1673ffffffffffffffffffffffffffffffffffffffff168152602001908152602001600020611699565b03610d0d57610d0b6006856116ae565b505b610d1760016116de565b7f6d7362d1e96e1739a576062b58d2055c5f8f9b50bf703c53b1c26cd3a82548c633858584604051610d4c94939291906125af565b60405180910390a15050610d5e611675565b5050565b610d6a6115c6565b6000600460008573ffffffffffffffffffffffffffffffffffffffff1673ffffffffffffffffffffffffffffffffffffffff16815260200190815260200160002060008481526020019081526020016000209050600073ffffffffffffffffffffffffffffffffffffffff168160010160009054906101000a900473ffffffffffffffffffffffffffffffffffffffff1673ffffffffffffffffffffffffffffffffffffffff161480610e205750806007015442115b610e5f576040517f08c379a0000000000000000000000000000000000000000000000000000000008152600401610e5690612640565b60405180910390fd5b80600601548267ffffffffffffffff161115610eb0576040517f08c379a0000000000000000000000000000000000000000000000000000000008152600401610ea7906126d2565b60405180910390fd5b600060016018603c80428767ffffffffffffffff16610ecf9190612397565b610ed991906123fa565b610ee391906123fa565b610eed91906123fa565b610ef7919061242b565b90506000818360040154610f0b9190612481565b905080341015610f50576040517f08c379a0000000000000000000000000000000000000000000000000000000008152600401610f4790612764565b60405180910390fd5b8260000160009054906101000a900473ffffffffffffffffffffffffffffffffffffffff1673ffffffffffffffffffffffffffffffffffffffff166108fc829081150290604051600060405180830381858888f19350505050158015610fba573d6000803e3d6000fd5b508573ffffffffffffffffffffffffffffffffffffffff1663e030565e8633876040518463ffffffff1660e01b8152600401610ff893929190612793565b600060405180830381600087803b15801561101257600080fd5b505af1158015611026573d6000803e3d6000fd5b50505050338360010160006101000a81548173ffffffffffffffffffffffffffffffffffffffff021916908373ffffffffffffffffffffffffffffffffffffffff1602179055508367ffffffffffffffff1683600701819055507f9e281a126f51088cc2a404608130a64cb50df5e046d30d0540344ef4f1b6ec2a8673ffffffffffffffffffffffffffffffffffffffff16636352211e876040518263ffffffff1660e01b81526004016110da9190611dad565b602060405180830381865afa1580156110f7573d6000803e3d6000fd5b505050506040513d601f19601f8201168201806040525081019061111b9190611ebd565b338888876005015488600601548a8860405161113e9897969594939291906127ca565b60405180910390a1505050611151611675565b505050565b60606000611164600161173a565b67ffffffffffffffff81111561117d5761117c612848565b5b6040519080825280602002602001820160405280156111b657816020015b6111a361199e565b81526020019060019003908161119b5790505b5090506000806111c66006611748565b905060005b81518110156114495760008282815181106111e9576111e8612877565b5b60200260200101519050600061123c600560008473ffffffffffffffffffffffffffffffffffffffff1673ffffffffffffffffffffffffffffffffffffffff168152602001908152602001600020611769565b905060005b815181101561143357600460008473ffffffffffffffffffffffffffffffffffffffff1673ffffffffffffffffffffffffffffffffffffffff168152602001908152602001600020600083838151811061129e5761129d612877565b5b60200260200101518152602001908152602001600020604051806101000160405290816000820160009054906101000a900473ffffffffffffffffffffffffffffffffffffffff1673ffffffffffffffffffffffffffffffffffffffff1673ffffffffffffffffffffffffffffffffffffffff1681526020016001820160009054906101000a900473ffffffffffffffffffffffffffffffffffffffff1673ffffffffffffffffffffffffffffffffffffffff1673ffffffffffffffffffffffffffffffffffffffff1681526020016002820160009054906101000a900473ffffffffffffffffffffffffffffffffffffffff1673ffffffffffffffffffffffffffffffffffffffff1673ffffffffffffffffffffffffffffffffffffffff1681526020016003820154815260200160048201548152602001600582015481526020016006820154815260200160078201548152505087878151811061140757611406612877565b5b6020026020010181905250858061141d906128a6565b965050808061142b906128a6565b915050611241565b5050508080611441906128a6565b9150506111cb565b5082935050505090565b6000600354905090565b6000806000905060008373ffffffffffffffffffffffffffffffffffffffff166301ffc9a77fad092b5c000000000000000000000000000000000000000000000000000000006040518263ffffffff1660e01b81526004016114bf9190612929565b602060405180830381865afa9250505080156114f957506040513d601f19601f820116820180604052508101906114f69190612970565b60015b611508576000925050506115c1565b809250508373ffffffffffffffffffffffffffffffffffffffff166301ffc9a77f80ac58cd000000000000000000000000000000000000000000000000000000006040518263ffffffff1660e01b81526004016115659190612929565b602060405180830381865afa92505050801561159f57506040513d601f19601f8201168201806040525081019061159c9190612970565b60015b6115ae576000925050506115c1565b809150508180156115bc5750805b925050505b919050565b60026000540361160b576040517f08c379a0000000000000000000000000000000000000000000000000000000008152600401611602906129e9565b60405180910390fd5b6002600081905550565b6001816000016000828254019250508190555050565b600061163d836000018360001b61178a565b905092915050565b600061166d836000018373ffffffffffffffffffffffffffffffffffffffff1660001b61178a565b905092915050565b6001600081905550565b6000611691836000018360001b6117fa565b905092915050565b60006116a78260000161190e565b9050919050565b60006116d6836000018373ffffffffffffffffffffffffffffffffffffffff1660001b6117fa565b905092915050565b6000816000015490506000811161172a576040517f08c379a000000000000000000000000000000000000000000000000000000000815260040161172190612a55565b60405180910390fd5b6001810382600001819055505050565b600081600001549050919050565b606060006117588360000161191f565b905060608190508092505050919050565b606060006117798360000161191f565b905060608190508092505050919050565b6000611796838361197b565b6117ef5782600001829080600181540180825580915050600190039060005260206000200160009091909190915055826000018054905083600101600084815260200190815260200160002081905550600190506117f4565b600090505b92915050565b6000808360010160008481526020019081526020016000205490506000811461190257600060018261182c9190612397565b90506000600186600001805490506118449190612397565b90508181146118b357600086600001828154811061186557611864612877565b5b906000526020600020015490508087600001848154811061188957611888612877565b5b90600052602060002001819055508387600101600083815260200190815260200160002081905550505b856000018054806118c7576118c6612a75565b5b600190038181906000526020600020016000905590558560010160008681526020019081526020016000206000905560019350505050611908565b60009150505b92915050565b600081600001805490509050919050565b60608160000180548060200260200160405190810160405280929190818152602001828054801561196f57602002820191906000526020600020905b81548152602001906001019080831161195b575b50505050509050919050565b600080836001016000848152602001908152602001600020541415905092915050565b604051806101000160405280600073ffffffffffffffffffffffffffffffffffffffff168152602001600073ffffffffffffffffffffffffffffffffffffffff168152602001600073ffffffffffffffffffffffffffffffffffffffff16815260200160008152602001600081526020016000815260200160008152602001600081525090565b600080fd5b600073ffffffffffffffffffffffffffffffffffffffff82169050919050565b6000611a5582611a2a565b9050919050565b611a6581611a4a565b8114611a7057600080fd5b50565b600081359050611a8281611a5c565b92915050565b6000819050919050565b611a9b81611a88565b8114611aa657600080fd5b50565b600081359050611ab881611a92565b92915050565b600080600080600060a08688031215611ada57611ad9611a25565b5b6000611ae888828901611a73565b9550506020611af988828901611aa9565b9450506040611b0a88828901611aa9565b9350506060611b1b88828901611aa9565b9250506080611b2c88828901611aa9565b9150509295509295909350565b60008060408385031215611b5057611b4f611a25565b5b6000611b5e85828601611a73565b9250506020611b6f85828601611aa9565b9150509250929050565b600067ffffffffffffffff82169050919050565b611b9681611b79565b8114611ba157600080fd5b50565b600081359050611bb381611b8d565b92915050565b600080600060608486031215611bd257611bd1611a25565b5b6000611be086828701611a73565b9350506020611bf186828701611aa9565b9250506040611c0286828701611ba4565b9150509250925092565b600081519050919050565b600082825260208201905092915050565b6000819050602082019050919050565b611c4181611a4a565b82525050565b611c5081611a88565b82525050565b61010082016000820151611c6d6000850182611c38565b506020820151611c806020850182611c38565b506040820151611c936040850182611c38565b506060820151611ca66060850182611c47565b506080820151611cb96080850182611c47565b5060a0820151611ccc60a0850182611c47565b5060c0820151611cdf60c0850182611c47565b5060e0820151611cf260e0850182611c47565b50505050565b6000611d048383611c56565b6101008301905092915050565b6000602082019050919050565b6000611d2982611c0c565b611d338185611c17565b9350611d3e83611c28565b8060005b83811015611d6f578151611d568882611cf8565b9750611d6183611d11565b925050600181019050611d42565b5085935050505092915050565b60006020820190508181036000830152611d968184611d1e565b905092915050565b611da781611a88565b82525050565b6000602082019050611dc26000830184611d9e565b92915050565b600060208284031215611dde57611ddd611a25565b5b6000611dec84828501611a73565b91505092915050565b60008115159050919050565b611e0a81611df5565b82525050565b6000602082019050611e256000830184611e01565b92915050565b600082825260208201905092915050565b7f436f6e7472616374206973206e6f7420616e2045524334393037000000000000600082015250565b6000611e72601a83611e2b565b9150611e7d82611e3c565b602082019050919050565b60006020820190508181036000830152611ea181611e65565b9050919050565b600081519050611eb781611a5c565b92915050565b600060208284031215611ed357611ed2611a25565b5b6000611ee184828501611ea8565b91505092915050565b7f4e6f74206f776e6572206f66206e667400000000000000000000000000000000600082015250565b6000611f20601083611e2b565b9150611f2b82611eea565b602082019050919050565b60006020820190508181036000830152611f4f81611f13565b9050919050565b7f4e6f7420656e6f75676820657468657220666f72206c697374696e6720666565600082015250565b6000611f8c602083611e2b565b9150611f9782611f56565b602082019050919050565b60006020820190508181036000830152611fbb81611f7f565b9050919050565b7f52656e74616c2070726963652073686f756c642062652067726561746572207460008201527f68616e2030000000000000000000000000000000000000000000000000000000602082015250565b600061201e602583611e2b565b915061202982611fc2565b604082019050919050565b6000602082019050818103600083015261204d81612011565b9050919050565b7f537461727420646174652063616e6e6f7420626520696e207468652070617374600082015250565b600061208a602083611e2b565b915061209582612054565b602082019050919050565b600060208201905081810360008301526120b98161207d565b9050919050565b7f456e6420646174652063616e6e6f74206265206265666f72652074686520737460008201527f6172742064617465000000000000000000000000000000000000000000000000602082015250565b600061211c602883611e2b565b9150612127826120c0565b604082019050919050565b6000602082019050818103600083015261214b8161210f565b9050919050565b7f54686973204e46542068617320616c7265616479206265656e206c6973746564600082015250565b6000612188602083611e2b565b915061219382612152565b602082019050919050565b600060208201905081810360008301526121b78161217b565b9050919050565b6121c781611a4a565b82525050565b6000819050919050565b6000819050919050565b60006121fc6121f76121f2846121cd565b6121d7565b611a88565b9050919050565b61220c816121e1565b82525050565b600061010082019050612228600083018b6121be565b612235602083018a6121be565b61224260408301896121be565b61224f6060830188611d9e565b61225c6080830187611d9e565b61226960a0830186611d9e565b61227660c0830185611d9e565b61228360e0830184612203565b9998505050505050505050565b7f54686973204e4654206973206e6f74206c697374656400000000000000000000600082015250565b60006122c6601683611e2b565b91506122d182612290565b602082019050919050565b600060208201905081810360008301526122f5816122b9565b9050919050565b7f4e6f7420617070726f76656420746f20756e6c697374204e4654000000000000600082015250565b6000612332601a83611e2b565b915061233d826122fc565b602082019050919050565b6000602082019050818103600083015261236181612325565b9050919050565b7f4e487b7100000000000000000000000000000000000000000000000000000000600052601160045260246000fd5b60006123a282611a88565b91506123ad83611a88565b9250828210156123c0576123bf612368565b5b828203905092915050565b7f4e487b7100000000000000000000000000000000000000000000000000000000600052601260045260246000fd5b600061240582611a88565b915061241083611a88565b9250826124205761241f6123cb565b5b828204905092915050565b600061243682611a88565b915061244183611a88565b9250827fffffffffffffffffffffffffffffffffffffffffffffffffffffffffffffffff0382111561247657612475612368565b5b828201905092915050565b600061248c82611a88565b915061249783611a88565b9250817fffffffffffffffffffffffffffffffffffffffffffffffffffffffffffffffff04831182151516156124d0576124cf612368565b5b828202905092915050565b7f4e6f7420656e6f75676820657468657220746f20636f76657220726566756e64600082015250565b6000612511602083611e2b565b915061251c826124db565b602082019050919050565b6000602082019050818103600083015261254081612504565b9050919050565b600061256261255d612558846121cd565b6121d7565b611b79565b9050919050565b61257281612547565b82525050565b600060608201905061258d6000830186611d9e565b61259a60208301856121be565b6125a76040830184612569565b949350505050565b60006080820190506125c460008301876121be565b6125d160208301866121be565b6125de6040830185611d9e565b6125eb6060830184611d9e565b95945050505050565b7f4e465420616c72656164792072656e7465640000000000000000000000000000600082015250565b600061262a601283611e2b565b9150612635826125f4565b602082019050919050565b600060208201905081810360008301526126598161261d565b9050919050565b7f52656e74616c20706572696f642065786365656473206d61782064617465207260008201527f656e7461626c6500000000000000000000000000000000000000000000000000602082015250565b60006126bc602783611e2b565b91506126c782612660565b604082019050919050565b600060208201905081810360008301526126eb816126af565b9050919050565b7f4e6f7420656e6f75676820657468657220746f20636f7665722072656e74616c60008201527f20706572696f6400000000000000000000000000000000000000000000000000602082015250565b600061274e602783611e2b565b9150612759826126f2565b604082019050919050565b6000602082019050818103600083015261277d81612741565b9050919050565b61278d81611b79565b82525050565b60006060820190506127a86000830186611d9e565b6127b560208301856121be565b6127c26040830184612784565b949350505050565b6000610100820190506127e0600083018b6121be565b6127ed602083018a6121be565b6127fa60408301896121be565b6128076060830188611d9e565b6128146080830187611d9e565b61282160a0830186611d9e565b61282e60c0830185612784565b61283b60e0830184611d9e565b9998505050505050505050565b7f4e487b7100000000000000000000000000000000000000000000000000000000600052604160045260246000fd5b7f4e487b7100000000000000000000000000000000000000000000000000000000600052603260045260246000fd5b60006128b182611a88565b91507fffffffffffffffffffffffffffffffffffffffffffffffffffffffffffffffff82036128e3576128e2612368565b5b600182019050919050565b60007fffffffff0000000000000000000000000000000000000000000000000000000082169050919050565b612923816128ee565b82525050565b600060208201905061293e600083018461291a565b92915050565b61294d81611df5565b811461295857600080fd5b50565b60008151905061296a81612944565b92915050565b60006020828403121561298657612985611a25565b5b60006129948482850161295b565b91505092915050565b7f5265656e7472616e637947756172643a207265656e7472616e742063616c6c00600082015250565b60006129d3601f83611e2b565b91506129de8261299d565b602082019050919050565b60006020820190508181036000830152612a02816129c6565b9050919050565b7f436f756e7465723a2064656372656d656e74206f766572666c6f770000000000600082015250565b6000612a3f601b83611e2b565b9150612a4a82612a09565b602082019050919050565b60006020820190508181036000830152612a6e81612a32565b9050919050565b7f4e487b7100000000000000000000000000000000000000000000000000000000600052603160045260246000fdfea2646970667358221220e65c86ecc0a27bcaa21ee364c6b941d46b9f9bcbc1d5c2f45c80cb06a1ec753364736f6c634300080e0033",
  "immutableReferences": {},
  "source": "// SPDX-License-Identifier: MIT\npragma solidity >=0.4.22 <0.9.0;\n\nimport \"@openzeppelin/contracts/utils/structs/EnumerableSet.sol\";\nimport \"@openzeppelin/contracts/utils/Counters.sol\";\nimport \"@openzeppelin/contracts/interfaces/IERC165.sol\";\nimport \"@openzeppelin/contracts/security/ReentrancyGuard.sol\";\nimport \"@openzeppelin/contracts/interfaces/IERC721.sol\";\nimport \"./IERC4907.sol\";\n\ncontract Marketplace is ReentrancyGuard {\n  using Counters for Counters.Counter;\n  using EnumerableSet for EnumerableSet.AddressSet;\n  using EnumerableSet for EnumerableSet.UintSet;\n  Counters.Counter private _nftsListed;\n  address private _marketOwner;\n  uint256 private _listingFee = .001 ether;\n  // maps contract address to token id to properties of the rental listing\n  mapping(address => mapping(uint256 => Listing)) private _listingMap;\n  // maps nft contracts to set of the tokens that are listed\n  mapping(address => EnumerableSet.UintSet) private _nftContractTokensMap;\n  // tracks the nft contracts that have been listed\n  EnumerableSet.AddressSet private _nftContracts;\n  struct Listing {\n      address owner;\n      address user;\n      address nftContract;\n      uint256 tokenId;\n      uint256 pricePerDay;\n      uint256 startDateUNIX; // when the nft can start being rented\n      uint256 endDateUNIX; // when the nft can no longer be rented\n      uint256 expires; // when the user can no longer rent it\n  }\n  event NFTListed(\n      address owner,\n      address user,\n      address nftContract,\n      uint256 tokenId,\n      uint256 pricePerDay,\n      uint256 startDateUNIX,\n      uint256 endDateUNIX,\n      uint256 expires\n  );\n  event NFTRented(\n      address owner,\n      address user,\n      address nftContract,\n      uint256 tokenId,\n      uint256 startDateUNIX,\n      uint256 endDateUNIX,\n      uint64 expires,\n      uint256 rentalFee\n  );\n  event NFTUnlisted(\n      address unlistSender,\n      address nftContract,\n      uint256 tokenId,\n      uint256 refund\n  );\n\n  constructor() {\n      _marketOwner = msg.sender;\n  }\n\n  // function to list NFT for rental\n  function listNFT(\n      address nftContract,\n      uint256 tokenId,\n      uint256 pricePerDay,\n      uint256 startDateUNIX,\n      uint256 endDateUNIX\n  ) public payable nonReentrant {\n      require(isRentableNFT(nftContract), \"Contract is not an ERC4907\");\n      require(IERC721(nftContract).ownerOf(tokenId) == msg.sender, \"Not owner of nft\");\n      require(msg.value == _listingFee, \"Not enough ether for listing fee\");\n      require(pricePerDay > 0, \"Rental price should be greater than 0\");\n      require(startDateUNIX >= block.timestamp, \"Start date cannot be in the past\");\n      require(endDateUNIX >= startDateUNIX, \"End date cannot be before the start date\");\n      require(_listingMap[nftContract][tokenId].nftContract == address(0), \"This NFT has already been listed\");\n      \n      payable(_marketOwner).transfer(_listingFee);\n      _listingMap[nftContract][tokenId] = Listing(\n          msg.sender,\n          address(0),\n          nftContract,\n          tokenId,\n          pricePerDay,\n          startDateUNIX,\n          endDateUNIX,\n          0\n      );\n      _nftsListed.increment();\n      EnumerableSet.add(_nftContractTokensMap[nftContract], tokenId);\n      EnumerableSet.add(_nftContracts, nftContract);\n      emit NFTListed(\n          IERC721(nftContract).ownerOf(tokenId),\n          address(0),\n          nftContract,\n          tokenId,\n          pricePerDay,\n          startDateUNIX,\n          endDateUNIX,\n          0\n      );\n    }\n\n    function isRentableNFT(address nftContract) public view returns (bool) {\n        bool _isRentable = false;\n        bool _isNFT = false;\n        try IERC165(nftContract).supportsInterface(type(IERC4907).interfaceId) returns (bool rentable) {\n            _isRentable = rentable;\n        } catch {\n            return false;\n        }\n        try IERC165(nftContract).supportsInterface(type(IERC721).interfaceId) returns (bool nft) {\n            _isNFT = nft;\n        } catch {\n            return false;\n        }\n        return _isRentable && _isNFT;\n    }\n\n    // function to rent an NFT\n    function rentNFT(\n        address nftContract,\n        uint256 tokenId,\n        uint64 expires\n    ) public payable nonReentrant {\n        Listing storage listing = _listingMap[nftContract][tokenId];\n        require(listing.user == address(0) || block.timestamp > listing.expires, \"NFT already rented\");\n        require(expires <= listing.endDateUNIX, \"Rental period exceeds max date rentable\");\n        // Transfer rental fee\n        uint256 numDays = (expires - block.timestamp)/60/60/24 + 1;\n        uint256 rentalFee = listing.pricePerDay * numDays;\n        require(msg.value >= rentalFee, \"Not enough ether to cover rental period\");\n        payable(listing.owner).transfer(rentalFee);\n        // Update listing\n        IERC4907(nftContract).setUser(tokenId, msg.sender, expires);\n        listing.user = msg.sender;\n        listing.expires = expires;\n\n        emit NFTRented(\n            IERC721(nftContract).ownerOf(tokenId),\n            msg.sender,\n            nftContract,\n            tokenId,\n            listing.startDateUNIX,\n            listing.endDateUNIX,\n            expires,\n            rentalFee\n        );\n    }\n\n    // function to unlist your rental, refunding the user for any lost time\n    function unlistNFT(address nftContract, uint256 tokenId) public payable nonReentrant {\n        Listing storage listing = _listingMap[nftContract][tokenId];\n        require(listing.owner != address(0), \"This NFT is not listed\");\n        require(listing.owner == msg.sender || _marketOwner == msg.sender , \"Not approved to unlist NFT\");\n        // fee to be returned to user if unlisted before rental period is up\n        // nothing to refund if no renter\n        uint256 refund = 0;\n        if (listing.user != address(0)) {\n            refund = ((listing.expires - block.timestamp) / 60 / 60 / 24 + 1) * listing.pricePerDay;\n            require(msg.value >= refund, \"Not enough ether to cover refund\");\n            payable(listing.user).transfer(refund);\n        }\n        // clean up data\n        IERC4907(nftContract).setUser(tokenId, address(0), 0);\n        EnumerableSet.remove(_nftContractTokensMap[nftContract], tokenId);\n        delete _listingMap[nftContract][tokenId];\n        if (EnumerableSet.length(_nftContractTokensMap[nftContract]) == 0) {\n            EnumerableSet.remove(_nftContracts, nftContract);\n        }\n        _nftsListed.decrement();\n\n        emit NFTUnlisted(\n            msg.sender,\n            nftContract,\n            tokenId,\n            refund\n        );\n    }\n\n    /* \n    * function to get all listings\n    *\n    * WARNING: This operation will copy the entire storage to memory, which can be quite expensive. This is designed\n    * to mostly be used by view accessors that are queried without any gas fees. Developers should keep in mind that\n    * this function has an unbounded cost, and using it as part of a state-changing function may render the function\n    * uncallable if the set grows to a point where copying to memory consumes too much gas to fit in a block.\n    */\n    function getAllListings() public view returns (Listing[] memory) {\n        Listing[] memory listings = new Listing[](_nftsListed.current());\n        uint256 listingsIndex = 0;\n        address[] memory nftContracts = EnumerableSet.values(_nftContracts);\n        for (uint i = 0; i < nftContracts.length; i++) {\n            address nftAddress = nftContracts[i];\n            uint256[] memory tokens = EnumerableSet.values(_nftContractTokensMap[nftAddress]);\n            for (uint j = 0; j < tokens.length; j++) {\n                listings[listingsIndex] = _listingMap[nftAddress][tokens[j]];\n                listingsIndex++;\n            }\n        }\n        return listings;\n    }\n\n    function getListingFee() public view returns (uint256) {\n        return _listingFee;\n    }\n}\n\n\n",
  "sourcePath": "/Users/jas/deploy/rent/unleashed_nft_rental_marketplace/truffle/contracts/Marketplace.sol",
  "compiler": {
    "name": "solc",
    "version": "0.8.14+commit.80d49f37.Emscripten.clang"
  },
  "schemaVersion": "3.4.12",
  "updatedAt": "2023-03-21T18:30:38.748Z",
  "networkType": "ethereum",
  "devdoc": {
    "kind": "dev",
    "methods": {},
    "version": 1
  },
  "userdoc": {
    "kind": "user",
    "methods": {},
    "version": 1
  }
}