{
  "contractName": "RentableNft",
  "abi": [
    {
      "inputs": [
        {
          "internalType": "address",
          "name": "marketplaceContract",
          "type": "address"
        }
      ],
      "stateMutability": "nonpayable",
      "type": "constructor"
    },
    {
      "anonymous": false,
      "inputs": [
        {
          "indexed": true,
          "internalType": "address",
          "name": "owner",
          "type": "address"
        },
        {
          "indexed": true,
          "internalType": "address",
          "name": "approved",
          "type": "address"
        },
        {
          "indexed": true,
          "internalType": "uint256",
          "name": "tokenId",
          "type": "uint256"
        }
      ],
      "name": "Approval",
      "type": "event"
    },
    {
      "anonymous": false,
      "inputs": [
        {
          "indexed": true,
          "internalType": "address",
          "name": "owner",
          "type": "address"
        },
        {
          "indexed": true,
          "internalType": "address",
          "name": "operator",
          "type": "address"
        },
        {
          "indexed": false,
          "internalType": "bool",
          "name": "approved",
          "type": "bool"
        }
      ],
      "name": "ApprovalForAll",
      "type": "event"
    },
    {
      "anonymous": false,
      "inputs": [
        {
          "indexed": true,
          "internalType": "address",
          "name": "from",
          "type": "address"
        },
        {
          "indexed": true,
          "internalType": "address",
          "name": "to",
          "type": "address"
        },
        {
          "indexed": true,
          "internalType": "uint256",
          "name": "tokenId",
          "type": "uint256"
        }
      ],
      "name": "Transfer",
      "type": "event"
    },
    {
      "anonymous": false,
      "inputs": [
        {
          "indexed": true,
          "internalType": "uint256",
          "name": "tokenId",
          "type": "uint256"
        },
        {
          "indexed": true,
          "internalType": "address",
          "name": "user",
          "type": "address"
        },
        {
          "indexed": false,
          "internalType": "uint64",
          "name": "expires",
          "type": "uint64"
        }
      ],
      "name": "UpdateUser",
      "type": "event"
    },
    {
      "inputs": [
        {
          "internalType": "address",
          "name": "to",
          "type": "address"
        },
        {
          "internalType": "uint256",
          "name": "tokenId",
          "type": "uint256"
        }
      ],
      "name": "approve",
      "outputs": [],
      "stateMutability": "nonpayable",
      "type": "function"
    },
    {
      "inputs": [
        {
          "internalType": "address",
          "name": "owner",
          "type": "address"
        }
      ],
      "name": "balanceOf",
      "outputs": [
        {
          "internalType": "uint256",
          "name": "",
          "type": "uint256"
        }
      ],
      "stateMutability": "view",
      "type": "function",
      "constant": true
    },
    {
      "inputs": [
        {
          "internalType": "uint256",
          "name": "tokenId",
          "type": "uint256"
        }
      ],
      "name": "getApproved",
      "outputs": [
        {
          "internalType": "address",
          "name": "",
          "type": "address"
        }
      ],
      "stateMutability": "view",
      "type": "function",
      "constant": true
    },
    {
      "inputs": [
        {
          "internalType": "address",
          "name": "owner",
          "type": "address"
        },
        {
          "internalType": "address",
          "name": "operator",
          "type": "address"
        }
      ],
      "name": "isApprovedForAll",
      "outputs": [
        {
          "internalType": "bool",
          "name": "",
          "type": "bool"
        }
      ],
      "stateMutability": "view",
      "type": "function",
      "constant": true
    },
    {
      "inputs": [],
      "name": "name",
      "outputs": [
        {
          "internalType": "string",
          "name": "",
          "type": "string"
        }
      ],
      "stateMutability": "view",
      "type": "function",
      "constant": true
    },
    {
      "inputs": [
        {
          "internalType": "uint256",
          "name": "tokenId",
          "type": "uint256"
        }
      ],
      "name": "ownerOf",
      "outputs": [
        {
          "internalType": "address",
          "name": "",
          "type": "address"
        }
      ],
      "stateMutability": "view",
      "type": "function",
      "constant": true
    },
    {
      "inputs": [
        {
          "internalType": "address",
          "name": "from",
          "type": "address"
        },
        {
          "internalType": "address",
          "name": "to",
          "type": "address"
        },
        {
          "internalType": "uint256",
          "name": "tokenId",
          "type": "uint256"
        }
      ],
      "name": "safeTransferFrom",
      "outputs": [],
      "stateMutability": "nonpayable",
      "type": "function"
    },
    {
      "inputs": [
        {
          "internalType": "address",
          "name": "from",
          "type": "address"
        },
        {
          "internalType": "address",
          "name": "to",
          "type": "address"
        },
        {
          "internalType": "uint256",
          "name": "tokenId",
          "type": "uint256"
        },
        {
          "internalType": "bytes",
          "name": "data",
          "type": "bytes"
        }
      ],
      "name": "safeTransferFrom",
      "outputs": [],
      "stateMutability": "nonpayable",
      "type": "function"
    },
    {
      "inputs": [
        {
          "internalType": "address",
          "name": "operator",
          "type": "address"
        },
        {
          "internalType": "bool",
          "name": "approved",
          "type": "bool"
        }
      ],
      "name": "setApprovalForAll",
      "outputs": [],
      "stateMutability": "nonpayable",
      "type": "function"
    },
    {
      "inputs": [
        {
          "internalType": "uint256",
          "name": "tokenId",
          "type": "uint256"
        },
        {
          "internalType": "address",
          "name": "user",
          "type": "address"
        },
        {
          "internalType": "uint64",
          "name": "expires",
          "type": "uint64"
        }
      ],
      "name": "setUser",
      "outputs": [],
      "stateMutability": "nonpayable",
      "type": "function"
    },
    {
      "inputs": [
        {
          "internalType": "bytes4",
          "name": "interfaceId",
          "type": "bytes4"
        }
      ],
      "name": "supportsInterface",
      "outputs": [
        {
          "internalType": "bool",
          "name": "",
          "type": "bool"
        }
      ],
      "stateMutability": "view",
      "type": "function",
      "constant": true
    },
    {
      "inputs": [],
      "name": "symbol",
      "outputs": [
        {
          "internalType": "string",
          "name": "",
          "type": "string"
        }
      ],
      "stateMutability": "view",
      "type": "function",
      "constant": true
    },
    {
      "inputs": [
        {
          "internalType": "uint256",
          "name": "tokenId",
          "type": "uint256"
        }
      ],
      "name": "tokenURI",
      "outputs": [
        {
          "internalType": "string",
          "name": "",
          "type": "string"
        }
      ],
      "stateMutability": "view",
      "type": "function",
      "constant": true
    },
    {
      "inputs": [
        {
          "internalType": "address",
          "name": "from",
          "type": "address"
        },
        {
          "internalType": "address",
          "name": "to",
          "type": "address"
        },
        {
          "internalType": "uint256",
          "name": "tokenId",
          "type": "uint256"
        }
      ],
      "name": "transferFrom",
      "outputs": [],
      "stateMutability": "nonpayable",
      "type": "function"
    },
    {
      "inputs": [
        {
          "internalType": "uint256",
          "name": "tokenId",
          "type": "uint256"
        }
      ],
      "name": "userExpires",
      "outputs": [
        {
          "internalType": "uint256",
          "name": "",
          "type": "uint256"
        }
      ],
      "stateMutability": "view",
      "type": "function",
      "constant": true
    },
    {
      "inputs": [
        {
          "internalType": "uint256",
          "name": "tokenId",
          "type": "uint256"
        }
      ],
      "name": "userOf",
      "outputs": [
        {
          "internalType": "address",
          "name": "",
          "type": "address"
        }
      ],
      "stateMutability": "view",
      "type": "function",
      "constant": true
    },
    {
      "inputs": [
        {
          "internalType": "string",
          "name": "_tokenURI",
          "type": "string"
        }
      ],
      "name": "mint",
      "outputs": [],
      "stateMutability": "nonpayable",
      "type": "function"
    },
    {
      "inputs": [
        {
          "internalType": "uint256",
          "name": "tokenId",
          "type": "uint256"
        }
      ],
      "name": "burn",
      "outputs": [],
      "stateMutability": "nonpayable",
      "type": "function"
    }
  ],
  "bytecode": "0x60806040523480156200001157600080fd5b50604051620035d0380380620035d083398181016040528101906200003791906200023d565b6040518060400160405280600b81526020017f52656e7461626c654e66740000000000000000000000000000000000000000008152506040518060400160405280600481526020017f524e46540000000000000000000000000000000000000000000000000000000081525081818160009080519060200190620000bd92919062000123565b508060019080519060200190620000d692919062000123565b505050505080600860006101000a81548173ffffffffffffffffffffffffffffffffffffffff021916908373ffffffffffffffffffffffffffffffffffffffff16021790555050620002d3565b82805462000131906200029e565b90600052602060002090601f016020900481019282620001555760008555620001a1565b82601f106200017057805160ff1916838001178555620001a1565b82800160010185558215620001a1579182015b82811115620001a057825182559160200191906001019062000183565b5b509050620001b09190620001b4565b5090565b5b80821115620001cf576000816000905550600101620001b5565b5090565b600080fd5b600073ffffffffffffffffffffffffffffffffffffffff82169050919050565b60006200020582620001d8565b9050919050565b6200021781620001f8565b81146200022357600080fd5b50565b60008151905062000237816200020c565b92915050565b600060208284031215620002565762000255620001d3565b5b6000620002668482850162000226565b91505092915050565b7f4e487b7100000000000000000000000000000000000000000000000000000000600052602260045260246000fd5b60006002820490506001821680620002b757607f821691505b602082108103620002cd57620002cc6200026f565b5b50919050565b6132ed80620002e36000396000f3fe608060405234801561001057600080fd5b50600436106101165760003560e01c80638fc88c48116100a2578063c2f1f14a11610071578063c2f1f14a146102ef578063c87b56dd1461031f578063d85d3d271461034f578063e030565e1461036b578063e985e9c51461038757610116565b80638fc88c481461026957806395d89b4114610299578063a22cb465146102b7578063b88d4fde146102d357610116565b806323b872dd116100e957806323b872dd146101b557806342842e0e146101d157806342966c68146101ed5780636352211e1461020957806370a082311461023957610116565b806301ffc9a71461011b57806306fdde031461014b578063081812fc14610169578063095ea7b314610199575b600080fd5b610135600480360381019061013091906121fc565b6103b7565b6040516101429190612244565b60405180910390f35b610153610431565b60405161016091906122f8565b60405180910390f35b610183600480360381019061017e9190612350565b6104c3565b60405161019091906123be565b60405180910390f35b6101b360048036038101906101ae9190612405565b610509565b005b6101cf60048036038101906101ca9190612445565b610620565b005b6101eb60048036038101906101e69190612445565b610680565b005b61020760048036038101906102029190612350565b6106a0565b005b610223600480360381019061021e9190612350565b6106ac565b60405161023091906123be565b60405180910390f35b610253600480360381019061024e9190612498565b610732565b60405161026091906124d4565b60405180910390f35b610283600480360381019061027e9190612350565b6107e9565b60405161029091906124d4565b60405180910390f35b6102a1610827565b6040516102ae91906122f8565b60405180910390f35b6102d160048036038101906102cc919061251b565b6108b9565b005b6102ed60048036038101906102e89190612690565b6108cf565b005b61030960048036038101906103049190612350565b610931565b60405161031691906123be565b60405180910390f35b61033960048036038101906103349190612350565b6109b6565b60405161034691906122f8565b60405180910390f35b610369600480360381019061036491906127b4565b610ac8565b005b6103856004803603810190610380919061283d565b610b25565b005b6103a1600480360381019061039c9190612890565b610c48565b6040516103ae9190612244565b60405180910390f35b60007fad092b5c000000000000000000000000000000000000000000000000000000007bffffffffffffffffffffffffffffffffffffffffffffffffffffffff1916827bffffffffffffffffffffffffffffffffffffffffffffffffffffffff1916148061042a575061042982610cdc565b5b9050919050565b606060008054610440906128ff565b80601f016020809104026020016040519081016040528092919081815260200182805461046c906128ff565b80156104b95780601f1061048e576101008083540402835291602001916104b9565b820191906000526020600020905b81548152906001019060200180831161049c57829003601f168201915b5050505050905090565b60006104ce82610dbe565b6004600083815260200190815260200160002060009054906101000a900473ffffffffffffffffffffffffffffffffffffffff169050919050565b6000610514826106ac565b90508073ffffffffffffffffffffffffffffffffffffffff168373ffffffffffffffffffffffffffffffffffffffff1603610584576040517f08c379a000000000000000000000000000000000000000000000000000000000815260040161057b906129a2565b60405180910390fd5b8073ffffffffffffffffffffffffffffffffffffffff166105a3610e09565b73ffffffffffffffffffffffffffffffffffffffff1614806105d257506105d1816105cc610e09565b610c48565b5b610611576040517f08c379a000000000000000000000000000000000000000000000000000000000815260040161060890612a34565b60405180910390fd5b61061b8383610e11565b505050565b61063161062b610e09565b82610eca565b610670576040517f08c379a000000000000000000000000000000000000000000000000000000000815260040161066790612ac6565b60405180910390fd5b61067b838383610f5f565b505050565b61069b838383604051806020016040528060008152506108cf565b505050565b6106a981611258565b50565b6000806106b8836112ab565b9050600073ffffffffffffffffffffffffffffffffffffffff168173ffffffffffffffffffffffffffffffffffffffff1603610729576040517f08c379a000000000000000000000000000000000000000000000000000000000815260040161072090612b32565b60405180910390fd5b80915050919050565b60008073ffffffffffffffffffffffffffffffffffffffff168273ffffffffffffffffffffffffffffffffffffffff16036107a2576040517f08c379a000000000000000000000000000000000000000000000000000000000815260040161079990612bc4565b60405180910390fd5b600360008373ffffffffffffffffffffffffffffffffffffffff1673ffffffffffffffffffffffffffffffffffffffff168152602001908152602001600020549050919050565b60006007600083815260200190815260200160002060000160149054906101000a900467ffffffffffffffff1667ffffffffffffffff169050919050565b606060018054610836906128ff565b80601f0160208091040260200160405190810160405280929190818152602001828054610862906128ff565b80156108af5780601f10610884576101008083540402835291602001916108af565b820191906000526020600020905b81548152906001019060200180831161089257829003601f168201915b5050505050905090565b6108cb6108c4610e09565b83836112e8565b5050565b6108e06108da610e09565b83610eca565b61091f576040517f08c379a000000000000000000000000000000000000000000000000000000000815260040161091690612ac6565b60405180910390fd5b61092b84848484611454565b50505050565b6000426007600084815260200190815260200160002060000160149054906101000a900467ffffffffffffffff1667ffffffffffffffff16106109ac576007600083815260200190815260200160002060000160009054906101000a900473ffffffffffffffffffffffffffffffffffffffff1690506109b1565b600090505b919050565b60606109c182610dbe565b60006006600084815260200190815260200160002080546109e1906128ff565b80601f0160208091040260200160405190810160405280929190818152602001828054610a0d906128ff565b8015610a5a5780601f10610a2f57610100808354040283529160200191610a5a565b820191906000526020600020905b815481529060010190602001808311610a3d57829003601f168201915b505050505090506000610a6b6114b0565b90506000815103610a80578192505050610ac3565b600082511115610ab5578082604051602001610a9d929190612c20565b60405160208183030381529060405292505050610ac3565b610abe846114c7565b925050505b919050565b610ad2600961152f565b6000610ade6009611545565b9050610aea3382611553565b610b17600860009054906101000a900473ffffffffffffffffffffffffffffffffffffffff1660016108b9565b610b218183611571565b5050565b610b2f3384610eca565b610b6e576040517f08c379a0000000000000000000000000000000000000000000000000000000008152600401610b6590612cb6565b60405180910390fd5b6000600760008581526020019081526020016000209050828160000160006101000a81548173ffffffffffffffffffffffffffffffffffffffff021916908373ffffffffffffffffffffffffffffffffffffffff160217905550818160000160146101000a81548167ffffffffffffffff021916908367ffffffffffffffff1602179055508273ffffffffffffffffffffffffffffffffffffffff16847f4e06b4e7000e659094299b3533b47b6aa8ad048e95e872d23d1f4ee55af89cfe84604051610c3a9190612ce5565b60405180910390a350505050565b6000600560008473ffffffffffffffffffffffffffffffffffffffff1673ffffffffffffffffffffffffffffffffffffffff16815260200190815260200160002060008373ffffffffffffffffffffffffffffffffffffffff1673ffffffffffffffffffffffffffffffffffffffff16815260200190815260200160002060009054906101000a900460ff16905092915050565b60007f80ac58cd000000000000000000000000000000000000000000000000000000007bffffffffffffffffffffffffffffffffffffffffffffffffffffffff1916827bffffffffffffffffffffffffffffffffffffffffffffffffffffffff19161480610da757507f5b5e139f000000000000000000000000000000000000000000000000000000007bffffffffffffffffffffffffffffffffffffffffffffffffffffffff1916827bffffffffffffffffffffffffffffffffffffffffffffffffffffffff1916145b80610db75750610db6826115e5565b5b9050919050565b610dc78161164f565b610e06576040517f08c379a0000000000000000000000000000000000000000000000000000000008152600401610dfd90612b32565b60405180910390fd5b50565b600033905090565b816004600083815260200190815260200160002060006101000a81548173ffffffffffffffffffffffffffffffffffffffff021916908373ffffffffffffffffffffffffffffffffffffffff160217905550808273ffffffffffffffffffffffffffffffffffffffff16610e84836106ac565b73ffffffffffffffffffffffffffffffffffffffff167f8c5be1e5ebec7d5bd14f71427d1e84f3dd0314c0f7b2291e5b200ac8c7c3b92560405160405180910390a45050565b600080610ed6836106ac565b90508073ffffffffffffffffffffffffffffffffffffffff168473ffffffffffffffffffffffffffffffffffffffff161480610f185750610f178185610c48565b5b80610f5657508373ffffffffffffffffffffffffffffffffffffffff16610f3e846104c3565b73ffffffffffffffffffffffffffffffffffffffff16145b91505092915050565b8273ffffffffffffffffffffffffffffffffffffffff16610f7f826106ac565b73ffffffffffffffffffffffffffffffffffffffff1614610fd5576040517f08c379a0000000000000000000000000000000000000000000000000000000008152600401610fcc90612d72565b60405180910390fd5b600073ffffffffffffffffffffffffffffffffffffffff168273ffffffffffffffffffffffffffffffffffffffff1603611044576040517f08c379a000000000000000000000000000000000000000000000000000000000815260040161103b90612e04565b60405180910390fd5b6110518383836001611690565b8273ffffffffffffffffffffffffffffffffffffffff16611071826106ac565b73ffffffffffffffffffffffffffffffffffffffff16146110c7576040517f08c379a00000000000000000000000000000000000000000000000000000000081526004016110be90612d72565b60405180910390fd5b6004600082815260200190815260200160002060006101000a81549073ffffffffffffffffffffffffffffffffffffffff02191690556001600360008573ffffffffffffffffffffffffffffffffffffffff1673ffffffffffffffffffffffffffffffffffffffff168152602001908152602001600020600082825403925050819055506001600360008473ffffffffffffffffffffffffffffffffffffffff1673ffffffffffffffffffffffffffffffffffffffff16815260200190815260200160002060008282540192505081905550816002600083815260200190815260200160002060006101000a81548173ffffffffffffffffffffffffffffffffffffffff021916908373ffffffffffffffffffffffffffffffffffffffff160217905550808273ffffffffffffffffffffffffffffffffffffffff168473ffffffffffffffffffffffffffffffffffffffff167fddf252ad1be2c89b69c2b068fc378daa952ba7f163c4a11628f55a4df523b3ef60405160405180910390a461125383838360016117f0565b505050565b611261816117f6565b6000600660008381526020019081526020016000208054611281906128ff565b9050146112a8576006600082815260200190815260200160002060006112a791906120ad565b5b50565b60006002600083815260200190815260200160002060009054906101000a900473ffffffffffffffffffffffffffffffffffffffff169050919050565b8173ffffffffffffffffffffffffffffffffffffffff168373ffffffffffffffffffffffffffffffffffffffff1603611356576040517f08c379a000000000000000000000000000000000000000000000000000000000815260040161134d90612e70565b60405180910390fd5b80600560008573ffffffffffffffffffffffffffffffffffffffff1673ffffffffffffffffffffffffffffffffffffffff16815260200190815260200160002060008473ffffffffffffffffffffffffffffffffffffffff1673ffffffffffffffffffffffffffffffffffffffff16815260200190815260200160002060006101000a81548160ff0219169083151502179055508173ffffffffffffffffffffffffffffffffffffffff168373ffffffffffffffffffffffffffffffffffffffff167f17307eab39ab6107e8899845ad3d59bd9653f200f220920489ca2b5937696c31836040516114479190612244565b60405180910390a3505050565b61145f848484610f5f565b61146b84848484611944565b6114aa576040517f08c379a00000000000000000000000000000000000000000000000000000000081526004016114a190612f02565b60405180910390fd5b50505050565b606060405180602001604052806000815250905090565b60606114d282610dbe565b60006114dc6114b0565b905060008151116114fc5760405180602001604052806000815250611527565b8061150684611acb565b604051602001611517929190612c20565b6040516020818303038152906040525b915050919050565b6001816000016000828254019250508190555050565b600081600001549050919050565b61156d828260405180602001604052806000815250611b99565b5050565b61157a8261164f565b6115b9576040517f08c379a00000000000000000000000000000000000000000000000000000000081526004016115b090612f94565b60405180910390fd5b806006600084815260200190815260200160002090805190602001906115e09291906120ed565b505050565b60007f01ffc9a7000000000000000000000000000000000000000000000000000000007bffffffffffffffffffffffffffffffffffffffffffffffffffffffff1916827bffffffffffffffffffffffffffffffffffffffffffffffffffffffff1916149050919050565b60008073ffffffffffffffffffffffffffffffffffffffff16611671836112ab565b73ffffffffffffffffffffffffffffffffffffffff1614159050919050565b61169c84848484611bf4565b8273ffffffffffffffffffffffffffffffffffffffff168473ffffffffffffffffffffffffffffffffffffffff161415801561173b5750600073ffffffffffffffffffffffffffffffffffffffff166007600084815260200190815260200160002060000160009054906101000a900473ffffffffffffffffffffffffffffffffffffffff1673ffffffffffffffffffffffffffffffffffffffff1614155b156117ea5760076000838152602001908152602001600020600080820160006101000a81549073ffffffffffffffffffffffffffffffffffffffff02191690556000820160146101000a81549067ffffffffffffffff02191690555050600073ffffffffffffffffffffffffffffffffffffffff16827f4e06b4e7000e659094299b3533b47b6aa8ad048e95e872d23d1f4ee55af89cfe60006040516117e19190612ff9565b60405180910390a35b50505050565b50505050565b6000611801826106ac565b9050611811816000846001611690565b61181a826106ac565b90506004600083815260200190815260200160002060006101000a81549073ffffffffffffffffffffffffffffffffffffffff02191690556001600360008373ffffffffffffffffffffffffffffffffffffffff1673ffffffffffffffffffffffffffffffffffffffff168152602001908152602001600020600082825403925050819055506002600083815260200190815260200160002060006101000a81549073ffffffffffffffffffffffffffffffffffffffff021916905581600073ffffffffffffffffffffffffffffffffffffffff168273ffffffffffffffffffffffffffffffffffffffff167fddf252ad1be2c89b69c2b068fc378daa952ba7f163c4a11628f55a4df523b3ef60405160405180910390a46119408160008460016117f0565b5050565b60006119658473ffffffffffffffffffffffffffffffffffffffff16611d1a565b15611abe578373ffffffffffffffffffffffffffffffffffffffff1663150b7a0261198e610e09565b8786866040518563ffffffff1660e01b81526004016119b09493929190613069565b6020604051808303816000875af19250505080156119ec57506040513d601f19601f820116820180604052508101906119e991906130ca565b60015b611a6e573d8060008114611a1c576040519150601f19603f3d011682016040523d82523d6000602084013e611a21565b606091505b506000815103611a66576040517f08c379a0000000000000000000000000000000000000000000000000000000008152600401611a5d90612f02565b60405180910390fd5b805181602001fd5b63150b7a0260e01b7bffffffffffffffffffffffffffffffffffffffffffffffffffffffff1916817bffffffffffffffffffffffffffffffffffffffffffffffffffffffff191614915050611ac3565b600190505b949350505050565b606060006001611ada84611d3d565b01905060008167ffffffffffffffff811115611af957611af8612565565b5b6040519080825280601f01601f191660200182016040528015611b2b5781602001600182028036833780820191505090505b509050600082602001820190505b600115611b8e578080600190039150507f3031323334353637383961626364656600000000000000000000000000000000600a86061a8153600a8581611b8257611b816130f7565b5b04945060008503611b39575b819350505050919050565b611ba38383611e90565b611bb06000848484611944565b611bef576040517f08c379a0000000000000000000000000000000000000000000000000000000008152600401611be690612f02565b60405180910390fd5b505050565b6001811115611d1457600073ffffffffffffffffffffffffffffffffffffffff168473ffffffffffffffffffffffffffffffffffffffff1614611c885780600360008673ffffffffffffffffffffffffffffffffffffffff1673ffffffffffffffffffffffffffffffffffffffff1681526020019081526020016000206000828254611c809190613155565b925050819055505b600073ffffffffffffffffffffffffffffffffffffffff168373ffffffffffffffffffffffffffffffffffffffff1614611d135780600360008573ffffffffffffffffffffffffffffffffffffffff1673ffffffffffffffffffffffffffffffffffffffff1681526020019081526020016000206000828254611d0b9190613189565b925050819055505b5b50505050565b6000808273ffffffffffffffffffffffffffffffffffffffff163b119050919050565b600080600090507a184f03e93ff9f4daa797ed6e38ed64bf6a1f0100000000000000008310611d9b577a184f03e93ff9f4daa797ed6e38ed64bf6a1f0100000000000000008381611d9157611d906130f7565b5b0492506040810190505b6d04ee2d6d415b85acef81000000008310611dd8576d04ee2d6d415b85acef81000000008381611dce57611dcd6130f7565b5b0492506020810190505b662386f26fc100008310611e0757662386f26fc100008381611dfd57611dfc6130f7565b5b0492506010810190505b6305f5e1008310611e30576305f5e1008381611e2657611e256130f7565b5b0492506008810190505b6127108310611e55576127108381611e4b57611e4a6130f7565b5b0492506004810190505b60648310611e785760648381611e6e57611e6d6130f7565b5b0492506002810190505b600a8310611e87576001810190505b80915050919050565b600073ffffffffffffffffffffffffffffffffffffffff168273ffffffffffffffffffffffffffffffffffffffff1603611eff576040517f08c379a0000000000000000000000000000000000000000000000000000000008152600401611ef69061322b565b60405180910390fd5b611f088161164f565b15611f48576040517f08c379a0000000000000000000000000000000000000000000000000000000008152600401611f3f90613297565b60405180910390fd5b611f56600083836001611690565b611f5f8161164f565b15611f9f576040517f08c379a0000000000000000000000000000000000000000000000000000000008152600401611f9690613297565b60405180910390fd5b6001600360008473ffffffffffffffffffffffffffffffffffffffff1673ffffffffffffffffffffffffffffffffffffffff16815260200190815260200160002060008282540192505081905550816002600083815260200190815260200160002060006101000a81548173ffffffffffffffffffffffffffffffffffffffff021916908373ffffffffffffffffffffffffffffffffffffffff160217905550808273ffffffffffffffffffffffffffffffffffffffff16600073ffffffffffffffffffffffffffffffffffffffff167fddf252ad1be2c89b69c2b068fc378daa952ba7f163c4a11628f55a4df523b3ef60405160405180910390a46120a96000838360016117f0565b5050565b5080546120b9906128ff565b6000825580601f106120cb57506120ea565b601f0160209004906000526020600020908101906120e99190612173565b5b50565b8280546120f9906128ff565b90600052602060002090601f01602090048101928261211b5760008555612162565b82601f1061213457805160ff1916838001178555612162565b82800160010185558215612162579182015b82811115612161578251825591602001919060010190612146565b5b50905061216f9190612173565b5090565b5b8082111561218c576000816000905550600101612174565b5090565b6000604051905090565b600080fd5b600080fd5b60007fffffffff0000000000000000000000000000000000000000000000000000000082169050919050565b6121d9816121a4565b81146121e457600080fd5b50565b6000813590506121f6816121d0565b92915050565b6000602082840312156122125761221161219a565b5b6000612220848285016121e7565b91505092915050565b60008115159050919050565b61223e81612229565b82525050565b60006020820190506122596000830184612235565b92915050565b600081519050919050565b600082825260208201905092915050565b60005b8381101561229957808201518184015260208101905061227e565b838111156122a8576000848401525b50505050565b6000601f19601f8301169050919050565b60006122ca8261225f565b6122d4818561226a565b93506122e481856020860161227b565b6122ed816122ae565b840191505092915050565b6000602082019050818103600083015261231281846122bf565b905092915050565b6000819050919050565b61232d8161231a565b811461233857600080fd5b50565b60008135905061234a81612324565b92915050565b6000602082840312156123665761236561219a565b5b60006123748482850161233b565b91505092915050565b600073ffffffffffffffffffffffffffffffffffffffff82169050919050565b60006123a88261237d565b9050919050565b6123b88161239d565b82525050565b60006020820190506123d360008301846123af565b92915050565b6123e28161239d565b81146123ed57600080fd5b50565b6000813590506123ff816123d9565b92915050565b6000806040838503121561241c5761241b61219a565b5b600061242a858286016123f0565b925050602061243b8582860161233b565b9150509250929050565b60008060006060848603121561245e5761245d61219a565b5b600061246c868287016123f0565b935050602061247d868287016123f0565b925050604061248e8682870161233b565b9150509250925092565b6000602082840312156124ae576124ad61219a565b5b60006124bc848285016123f0565b91505092915050565b6124ce8161231a565b82525050565b60006020820190506124e960008301846124c5565b92915050565b6124f881612229565b811461250357600080fd5b50565b600081359050612515816124ef565b92915050565b600080604083850312156125325761253161219a565b5b6000612540858286016123f0565b925050602061255185828601612506565b9150509250929050565b600080fd5b600080fd5b7f4e487b7100000000000000000000000000000000000000000000000000000000600052604160045260246000fd5b61259d826122ae565b810181811067ffffffffffffffff821117156125bc576125bb612565565b5b80604052505050565b60006125cf612190565b90506125db8282612594565b919050565b600067ffffffffffffffff8211156125fb576125fa612565565b5b612604826122ae565b9050602081019050919050565b82818337600083830152505050565b600061263361262e846125e0565b6125c5565b90508281526020810184848401111561264f5761264e612560565b5b61265a848285612611565b509392505050565b600082601f8301126126775761267661255b565b5b8135612687848260208601612620565b91505092915050565b600080600080608085870312156126aa576126a961219a565b5b60006126b8878288016123f0565b94505060206126c9878288016123f0565b93505060406126da8782880161233b565b925050606085013567ffffffffffffffff8111156126fb576126fa61219f565b5b61270787828801612662565b91505092959194509250565b600067ffffffffffffffff82111561272e5761272d612565565b5b612737826122ae565b9050602081019050919050565b600061275761275284612713565b6125c5565b90508281526020810184848401111561277357612772612560565b5b61277e848285612611565b509392505050565b600082601f83011261279b5761279a61255b565b5b81356127ab848260208601612744565b91505092915050565b6000602082840312156127ca576127c961219a565b5b600082013567ffffffffffffffff8111156127e8576127e761219f565b5b6127f484828501612786565b91505092915050565b600067ffffffffffffffff82169050919050565b61281a816127fd565b811461282557600080fd5b50565b60008135905061283781612811565b92915050565b6000806000606084860312156128565761285561219a565b5b60006128648682870161233b565b9350506020612875868287016123f0565b925050604061288686828701612828565b9150509250925092565b600080604083850312156128a7576128a661219a565b5b60006128b5858286016123f0565b92505060206128c6858286016123f0565b9150509250929050565b7f4e487b7100000000000000000000000000000000000000000000000000000000600052602260045260246000fd5b6000600282049050600182168061291757607f821691505b60208210810361292a576129296128d0565b5b50919050565b7f4552433732313a20617070726f76616c20746f2063757272656e74206f776e6560008201527f7200000000000000000000000000000000000000000000000000000000000000602082015250565b600061298c60218361226a565b915061299782612930565b604082019050919050565b600060208201905081810360008301526129bb8161297f565b9050919050565b7f4552433732313a20617070726f76652063616c6c6572206973206e6f7420746f60008201527f6b656e206f776e6572206f7220617070726f76656420666f7220616c6c000000602082015250565b6000612a1e603d8361226a565b9150612a29826129c2565b604082019050919050565b60006020820190508181036000830152612a4d81612a11565b9050919050565b7f4552433732313a2063616c6c6572206973206e6f7420746f6b656e206f776e6560008201527f72206f7220617070726f76656400000000000000000000000000000000000000602082015250565b6000612ab0602d8361226a565b9150612abb82612a54565b604082019050919050565b60006020820190508181036000830152612adf81612aa3565b9050919050565b7f4552433732313a20696e76616c696420746f6b656e2049440000000000000000600082015250565b6000612b1c60188361226a565b9150612b2782612ae6565b602082019050919050565b60006020820190508181036000830152612b4b81612b0f565b9050919050565b7f4552433732313a2061646472657373207a65726f206973206e6f74206120766160008201527f6c6964206f776e65720000000000000000000000000000000000000000000000602082015250565b6000612bae60298361226a565b9150612bb982612b52565b604082019050919050565b60006020820190508181036000830152612bdd81612ba1565b9050919050565b600081905092915050565b6000612bfa8261225f565b612c048185612be4565b9350612c1481856020860161227b565b80840191505092915050565b6000612c2c8285612bef565b9150612c388284612bef565b91508190509392505050565b7f4552433732313a207472616e736665722063616c6c6572206973206e6f74206f60008201527f776e6572206e6f7220617070726f766564000000000000000000000000000000602082015250565b6000612ca060318361226a565b9150612cab82612c44565b604082019050919050565b60006020820190508181036000830152612ccf81612c93565b9050919050565b612cdf816127fd565b82525050565b6000602082019050612cfa6000830184612cd6565b92915050565b7f4552433732313a207472616e736665722066726f6d20696e636f72726563742060008201527f6f776e6572000000000000000000000000000000000000000000000000000000602082015250565b6000612d5c60258361226a565b9150612d6782612d00565b604082019050919050565b60006020820190508181036000830152612d8b81612d4f565b9050919050565b7f4552433732313a207472616e7366657220746f20746865207a65726f2061646460008201527f7265737300000000000000000000000000000000000000000000000000000000602082015250565b6000612dee60248361226a565b9150612df982612d92565b604082019050919050565b60006020820190508181036000830152612e1d81612de1565b9050919050565b7f4552433732313a20617070726f766520746f2063616c6c657200000000000000600082015250565b6000612e5a60198361226a565b9150612e6582612e24565b602082019050919050565b60006020820190508181036000830152612e8981612e4d565b9050919050565b7f4552433732313a207472616e7366657220746f206e6f6e20455243373231526560008201527f63656976657220696d706c656d656e7465720000000000000000000000000000602082015250565b6000612eec60328361226a565b9150612ef782612e90565b604082019050919050565b60006020820190508181036000830152612f1b81612edf565b9050919050565b7f45524337323155524953746f726167653a2055524920736574206f66206e6f6e60008201527f6578697374656e7420746f6b656e000000000000000000000000000000000000602082015250565b6000612f7e602e8361226a565b9150612f8982612f22565b604082019050919050565b60006020820190508181036000830152612fad81612f71565b9050919050565b6000819050919050565b6000819050919050565b6000612fe3612fde612fd984612fb4565b612fbe565b6127fd565b9050919050565b612ff381612fc8565b82525050565b600060208201905061300e6000830184612fea565b92915050565b600081519050919050565b600082825260208201905092915050565b600061303b82613014565b613045818561301f565b935061305581856020860161227b565b61305e816122ae565b840191505092915050565b600060808201905061307e60008301876123af565b61308b60208301866123af565b61309860408301856124c5565b81810360608301526130aa8184613030565b905095945050505050565b6000815190506130c4816121d0565b92915050565b6000602082840312156130e0576130df61219a565b5b60006130ee848285016130b5565b91505092915050565b7f4e487b7100000000000000000000000000000000000000000000000000000000600052601260045260246000fd5b7f4e487b7100000000000000000000000000000000000000000000000000000000600052601160045260246000fd5b60006131608261231a565b915061316b8361231a565b92508282101561317e5761317d613126565b5b828203905092915050565b60006131948261231a565b915061319f8361231a565b9250827fffffffffffffffffffffffffffffffffffffffffffffffffffffffffffffffff038211156131d4576131d3613126565b5b828201905092915050565b7f4552433732313a206d696e7420746f20746865207a65726f2061646472657373600082015250565b600061321560208361226a565b9150613220826131df565b602082019050919050565b6000602082019050818103600083015261324481613208565b9050919050565b7f4552433732313a20746f6b656e20616c7265616479206d696e74656400000000600082015250565b6000613281601c8361226a565b915061328c8261324b565b602082019050919050565b600060208201905081810360008301526132b081613274565b905091905056fea26469706673582212205f45ffe1f760def980a250938203013a458e04ae66667c4ee8d352474169f2e864736f6c634300080e0033",
  "immutableReferences": {},
  "source": "// SPDX-License-Identifier: MIT\npragma solidity >=0.4.22 <0.9.0;\n\nimport \"./ERC4907.sol\";\nimport \"@openzeppelin/contracts/utils/Counters.sol\";\n\ncontract RentableNft is ERC4907 {\n  using Counters for Counters.Counter;\n  address private _marketplaceContract;\n  Counters.Counter private _tokenIds;\n\n  constructor(address marketplaceContract) ERC4907(\"RentableNft\", \"RNFT\") {\n    _marketplaceContract = marketplaceContract;\n  }\n\n  function mint(string memory _tokenURI) public {\n    _tokenIds.increment();\n    uint256 newTokenId = _tokenIds.current();\n    _safeMint(msg.sender, newTokenId);\n    setApprovalForAll(_marketplaceContract, true);\n    _setTokenURI(newTokenId, _tokenURI);\n  }\n\n  function burn(uint256 tokenId) public {\n    _burn(tokenId);\n  }\n}",
  "sourcePath": "/Users/jas/deploy/rent/unleashed_nft_rental_marketplace/truffle/contracts/RentableNft.sol",
  "compiler": {
    "name": "solc",
    "version": "0.8.14+commit.80d49f37.Emscripten.clang"
  },
  "schemaVersion": "3.4.12",
  "updatedAt": "2023-03-21T18:30:38.694Z",
  "networkType": "ethereum",
  "devdoc": {
    "kind": "dev",
    "methods": {
      "approve(address,uint256)": {
        "details": "See {IERC721-approve}."
      },
      "balanceOf(address)": {
        "details": "See {IERC721-balanceOf}."
      },
      "getApproved(uint256)": {
        "details": "See {IERC721-getApproved}."
      },
      "isApprovedForAll(address,address)": {
        "details": "See {IERC721-isApprovedForAll}."
      },
      "name()": {
        "details": "See {IERC721Metadata-name}."
      },
      "ownerOf(uint256)": {
        "details": "See {IERC721-ownerOf}."
      },
      "safeTransferFrom(address,address,uint256)": {
        "details": "See {IERC721-safeTransferFrom}."
      },
      "safeTransferFrom(address,address,uint256,bytes)": {
        "details": "See {IERC721-safeTransferFrom}."
      },
      "setApprovalForAll(address,bool)": {
        "details": "See {IERC721-setApprovalForAll}."
      },
      "setUser(uint256,address,uint64)": {
        "details": "The zero address indicates there is no user Throws if `tokenId` is not valid NFT",
        "params": {
          "expires": "UNIX timestamp, The new user could use the NFT before expires",
          "user": "The new user of the NFT"
        }
      },
      "supportsInterface(bytes4)": {
        "details": "See {IERC165-supportsInterface}."
      },
      "symbol()": {
        "details": "See {IERC721Metadata-symbol}."
      },
      "tokenURI(uint256)": {
        "details": "See {IERC721Metadata-tokenURI}."
      },
      "transferFrom(address,address,uint256)": {
        "details": "See {IERC721-transferFrom}."
      },
      "userExpires(uint256)": {
        "details": "The zero value indicates that there is no user",
        "params": {
          "tokenId": "The NFT to get the user expires for"
        },
        "returns": {
          "_0": "The user expires for this NFT"
        }
      },
      "userOf(uint256)": {
        "details": "The zero address indicates that there is no user or the user is expired",
        "params": {
          "tokenId": "The NFT to get the user address for"
        },
        "returns": {
          "_0": "The user address for this NFT"
        }
      }
    },
    "version": 1
  },
  "userdoc": {
    "events": {
      "UpdateUser(uint256,address,uint64)": {
        "notice": "Emitted when the `user` of an NFT or the `expires` of the `user` is changed The zero address for user indicates that there is no user address"
      }
    },
    "kind": "user",
    "methods": {
      "setUser(uint256,address,uint64)": {
        "notice": "set the user and expires of a NFT"
      },
      "userExpires(uint256)": {
        "notice": "Get the user expires of an NFT"
      },
      "userOf(uint256)": {
        "notice": "Get the user address of an NFT"
      }
    },
    "version": 1
  }
}